:020000040000FA
:1000000003138316FF308600870183120313861CB7
:100010001F28061C1328803087005920870159208B
:1000200059205920072880308700592059208701FE
:100030005920592059205920592059200728061C99
:1000400035288030870059205920592059208701B0
:1000500059205920592059205920592059205920D8
:1000600059205920592059200728803087005920CD
:1000700059205920592059205920592059208701A9
:1000800059205920592059205920592059205920A8
:100090005920592059205920592059205920592098
:1000A0005920592059205920592059205920592088
:1000B00007280130900000300F3000308E000C1007
:0600C0000C1C6028080082
:00000001FF
